:020000040800F2
:1000000098220020D10100089F270008B72300088C
:100010009D270008112300084D290008000000005A
:10002000000000000000000000000000352800086B
:100030001323000800000000B5270008F928000875
:10004000EB010008EB010008EB010008EB010008E0
:10005000EB010008EB010008EB010008EB010008D0
:10006000EB010008EB010008EB010008EB010008C0
:10007000EB010008EB010008EB010008EB010008B0
:10008000EB010008EB010008EB010008EB010008A0
:10009000EB010008EB010008EB010008EB01000890
:1000A000EB010008EB010008EB010008EB01000880
:1000B000EB010008EB010008EB010008EB01000870
:1000C000EB010008EB010008EB010008EB01000860
:1000D000EB010008EB010008EB010008EB01000850
:1000E000EB010008EB010008EB010008EB01000840
:1000F000EB010008EB010008EB010008EB01000830
:10010000EB010008EB010008EB010008EB0100081F
:10011000EB010008EB010008EB010008EB0100080F
:10012000EB010008EB010008EB010008EB010008FF
:1001300000F002F800F03CF80AA090E8000C8244BD
:100140008344AAF10107DA4501D100F031F8AFF29A
:10015000090EBAE80F0013F0010F18BFFB1A43F0A5
:10016000010318471829000038290000103A24BF5D
:1001700078C878C1FAD8520724BF30C830C144BF0C
:1001800004680C607047000000230024002500264E
:10019000103A28BF78C1FBD8520728BF30C148BFEA
:1001A0000B6070471FB502F01AFC1FBD10B510BDE3
:1001B00000F031FC1146FFF7F5FF02F001FC00F002
:1001C0004FFC03B4FFF7F2FF03BC00F057FC000044
:1001D0000948804709480047FEE7FEE7FEE7FEE7DB
:1001E000FEE7FEE7FEE7FEE7FEE7FEE70448054917
:1001F000054A064B70470000FD2800083101000841
:1002000098000020982200209802002098020020E8
:10021000002170B50B464EF66126094A54681180DC
:100220002589AD0704D549B9207300BF00BF70BD53
:1002300001339BB2B3424FF00101F1D11380F3E7D8
:1002400030000020002330B54EF6612513494A687E
:100250000B801489240603D4148904F4C0541CB1FF
:1002600001339BB2AB42F4D1138913F041030AD19D
:1002700010734EF6612518460B801489E40704D5E7
:100280004BB9107B30BD9389EEE7013080B2A842B4
:100290004FF00103F1D10880F3E700BF30000020E8
:1002A00010B5002002F00CF90420FFF7B1FF002088
:1002B000FFF7C8FF0446012002F002F9204610BDF6
:1002C00010B50446002002F0FBF80120FFF7A0FF64
:1002D0002046FFF7B7FFBDE81040012002F0F0B85C
:1002E00070B5064669B3202928BF202100200C469E
:1002F00002F0E6F80220FFF78BFF0020FFF788FFEF
:10030000354615F8010BFFF783FFAB1BDBB29C42B0
:10031000F7D800214EF661250B460A4A5468118031
:100320002089000605D451B9BDE87040012002F0D3
:10033000C7B801339BB2AB424FF00101F0D113803B
:10034000F2E770BD3000002038B504464CF250355D
:10035000FFF7A6FFFF2801D0C3070FD4012002F04A
:10036000C3F8681E85B2002DF2D14CB1FFF798FF9B
:10037000000240F010002080284638BD0120FCE734
:100380002046FAE738B504464CF25035FFF788FFAF
:10039000FF2801D083070DD5012002F0A5F8013D0B
:1003A000F4D14CB1FFF77CFF000240F01100208037
:1003B000284638BD0120FCE72046FAE72DE9F04148
:1003C00000296CD0202928BF2021064600200D4698
:1003D00002F076F80022384F144613463A807868C7
:1003E0004EF6612C04E08BB263454FF0010460D0FF
:1003F0000289591C9207F6D5002C5AD103230373A6
:1004000000BF00BF0020FFF71DFF002378681C46D7
:100410003B804EF6612C04E08BB263454FF0010443
:1004200043D00289591C9207F6D5002C3DD10024F7
:10043000047300BF00BFB5F1010E34D04EF6612148
:10044000A046786806EB040C002301E08B4204D040
:1004500002890133D2079BB2F8D50134037BE4B2A1
:1004600074458CF8003080F80C80EBDB26440023C8
:100470004EF6612C1C463B8004E08BB263454FF086
:10048000010414D00289591CD207F6D57CB9037B2C
:100490000120337002F014F82846BDE8F0810D46C3
:1004A0002846BDE8F0817868E1E73B80BFE73B8004
:1004B000EDE73B80A2E700BF300000202DE9F843C4
:1004C000064601248846FFF7EBFEB44064B244EAD6
:1004D0000003DBB29842074603D1022E01D0052E5D
:1004E0002CD14EF66025FFF7DBFE431EDBB2FD2B61
:1004F000814601D8B84207D0013D0120ADB201F0DC
:10050000F3FF4F46002DEED144EA0700C0B2874208
:1005100006D1022E06D0052E10D100F0FB0001E01E
:10052000022EFAD1FFF7CCFEFFF7BAFEB8F1000FAA
:1005300004D04046BDE8F84301F0D6BFBDE8F883DB
:100540002DE9F04105460124AC40E4430E46FFF797
:10055000A7FE64B204EA0003DBB29842074621D04A
:100560004EF66025FFF79CFE431EDBB2FD2B804656
:1005700001D8B84207D0013D0120ADB201F0B4FF6F
:100580004746002DEED104EA0700C0B2B84209D0B8
:1005900000F0FB00FFF794FE26B13046BDE8F041C5
:1005A00001F0A2BFBDE8F08170B500242646114DD0
:1005B000E2B2AB5C533B012B98BFAE54835C533B20
:1005C000012B98BF8654A956835641B11BB199425D
:1005D00004F10104ECD0994204DD012007E0002B76
:1005E000FBDB05D08B42D4BF01204FF0FF3070BD44
:1005F0001846FCE71800002010B50C46FFF7D4FFA2
:10060000002808DA4CB1FFF74BFE000240F07700FB
:100610002080012010BD0020FCE70120FAE72DE931
:10062000F047099C054691461E460778FFF758FE9D
:100630000A2001F059FF4FF6FF78013EB6B2464559
:1006400005D12046FFF79EFE70B9002047E0FA2052
:1006500001F04AFFFA2001F047FFFA2001F044FFC1
:10066000FA2001F041FFE8E74FF47A76BDF8203038
:100670004FF0000A5E434CF25033B6FBF3F60136FE
:100680001FFA8AF39E42E0D94CF25038FFF708FE79
:100690008038C0B27E2824D80CB10023238049467C
:1006A0002846FFF78BFE0A2001F01EFF00210720DD
:1006B000FFF746FF00231A466978481C5E1C9BB270
:1006C000984227DA29448B78934228D0002CBCD05A
:1006D000FFF7E6FD000240F0300020800020BDE87A
:1006E000F08708F1FF3801201FFA88F801F0FCFEBE
:1006F000B8F1000FCAD154B1FFF7D2FD000220803B
:10070000012001F0F1FE238843F0160323800AF153
:10071000010AB5E7EB5C1A44D2B23346CEE72B7838
:1007200023F08003BB420DD0362F01D1252B09D0F9
:10073000002C8AD0FFF7B4FD000240F03100208089
:100740000020CCE700211548FFF756FF20BBAB780F
:10075000782B21D1002C3FF478AFFFF7A1FD0002E8
:1007600080B22080EB78032B11D8DFE803F015026C
:10077000070B40F0450020800020B0E740F0460025
:10078000208062E740F0470020800020A7E740F08B
:10079000480020800020A2E70120A0E7642A00088A
:1007A00030B504468FB00D4609B100230B802846B2
:1007B000FFF7CAFD00283ED00A210720FFF7C0FE40
:1007C00001200A21FFF77AFE42238DF8183000231A
:1007D0001A488DF81A4006ACE218195C0133102B48
:1007E000D170F9D1164A03AB10685168127A03C36D
:1007F0001A70002303A88DF81530E218C15C01338C
:100800000A2BD174F9D11B2300228DF8193013461D
:10081000A15C01320B441D2ADBB2F9D18DF83530D1
:1008200000230195009320221E212046FFF7F7FEAA
:10083000003018BF01200FB030BD00BFEC29000808
:10084000FC2900082DE9F041002407462546DFF881
:100850004C80BD4208D14120FFF732FD0A2001F053
:1008600043FE2046BDE8F08105F0DA0646F00106B9
:100870003046FFF725FD00214046FFF7BDFE48B199
:100880000A2001F031FEFFF70BFD864208BF01345C
:100890000135DEE7012001F027FEF4E70C2A00080D
:1008A0001FB502930023CDE9003300F0F3F805B043
:1008B0005DF804FB2DE9FF410B9C05460E460B48F5
:1008C000214617469846FFF797FE68B9BDF82830CD
:1008D0000294CDE900833A4601233146284600F0D0
:1008E000D9F804B0BDE8F0810020FAE75C2A0008DE
:1008F0002DE9FF410B9C05460E46174698460CB164
:100900000023238021460A48FFF776FE68B9BDF828
:1009100028300294CDE900833A4601233146284627
:1009200000F0B8F804B0BDE8F0810020FAE700BF9D
:10093000142A000870B505468AB00E4614460AB15E
:10094000002313802046FFF7FFFCF0B10A210720A7
:10095000FFF7F6FD0A210120FFF7B0FD40F2162354
:10096000ADF8083000238DF80B6018368DF80A506A
:100970000194354400932022052102A88DF80C50E3
:10098000FFF74DFE003018BF01200AB070BD00BF58
:100990004FF0013C50F8042B51F8043B9A4221D10E
:1009A000A2EB0C03934313EACC1317D150F8042B9A
:1009B00051F8043B9A4215D1A2EB0C03934313EA7E
:1009C000CC130BD150F8042B51F8043B9A4209D1B7
:1009D000A2EB0C03934313EACC13DBD04FF00000DF
:1009E000704700BFD01A01BAB1FA81F101F01801C5
:1009F00022FA01F0CB40C1F12001DBB2C0B2C01A33
:100A00002CFA01F3D11A914311EAC311E6D17047D0
:100A1000704770477047754600F02CF8AE460500E9
:100A20006946534620F00700854618B020B5FFF709
:100A3000DDFBBDE820404FF000064FF000074FF00F
:100A400000084FF0000B21F00701AC46ACE8C009EC
:100A5000ACE8C009ACE8C009ACE8C0098D467047F5
:100A600010B50446AFF300802046BDE81040FFF704
:100A7000A8BB00000048704738000020014918203A
:100A8000ABBEFEE726000200004870473C00002095
:100A9000704700002DE9F04F91B01C9C07460E46B0
:100AA000924699461A9DBDF86C800CB100232380B4
:100AB000002E00F0EB80B9F1010F13D1B348FFF71E
:100AC00073FD002804A813DA0023E9569AB2C15432
:100AD00019B101330F2BF8D11A4610AB1A44002379
:100AE00002F8303C2046FFF72FFC50B90025A4E067
:100AF00023461422294601F0E9F80028F2D10546E0
:100B0000C3E0FFF7CDFB00F07B0343F00203984204
:100B100005461DD04FF47A7BFFF7C2FBA842039035
:100B20000BD0012001F0E0FC0BF1FF3B039B1FFA0F
:100B30008BFB1D46BBF1000FEED105F07B0040F0B2
:100B40000200A84204D0FFF7BBFB0A2001F0CCFC56
:100B50004FF48063B9F1010FADF820304FEA16234E
:100B60008DF823308DF822A08DF824604FF000031B
:100B700033D08DF8253000210A469DF82100013040
:100B80008BB2834210AD01F101012B4447DD03F824
:100B9000202C00239DF8211001940331009304229E
:100BA000C9B208A8FFF73BFD00289FD09DF822504E
:100BB000002D00F0C8801CB1FFF772FB00022080FE
:100BC0009DF82230F63B092B00F2B480DFE803F0F9
:100BD000A9A0988F867D746B622C8DF8259004A84F
:100BE00019569AB281B90020931D9BB208A99AB2F6
:100BF000152A11D94FEA18238DF8363016238DF8AF
:100C000037808DF82130B6E708AA1A440133102B3B
:100C10009171E5D11A46E6E758540133E7E713F836
:100C2000203C1A44D2B2ABE71CB1238843F0120334
:100C30002380C82001F058FC00250A210220FFF77C
:100C40003DFC022001F050FC0F24FFF729FBFF2898
:100C500001D043070AD4013C0120A4B201F044FCB6
:100C6000002CF2D10A210220FFF728FCAE420CD85A
:100C7000B6F5807F09D8F92E00F28580142001F0A6
:100C800033FCF043C0B201F02FFC2E46304611B0C9
:100C9000BDE8F08F002C3FF429AF2388002543F0F6
:100CA00013032380C9E7002C3FF420AF23880025DD
:100CB00043F014032380C0E7002C3FF417AF2388D0
:100CC000002543F015032380B7E7002C3FF40EAF57
:100CD0002388002543F018032380AEE7002C3FF45F
:100CE00005AF2388002543F019032380A5E7002CD6
:100CF0003FF4FCAE2388002543F01A0323809CE7D1
:100D0000002C3FF4F3AE238843F01B032380EDE671
:100D1000002C3FF4EBAE2388002543F01C03238016
:100D20008BE7002C3FF4E2AE2388002543F01D033F
:100D3000238082E7002C3FF4D9AE2388002543F0BE
:100D40001F03238079E70B2001F0CEFBAE427FF634
:100D500074AFA6EB0508B8F1200FCCBF4FF0200808
:100D60001FFA88F85FFA88F17819FFF7B9FA0620B8
:100D700001F0BAFB2046FFF705FB00283FF45DAF0A
:100D80004544ADB2E2E70A207DE700BF1C2A000817
:100D90002DE9F0478AB00546DDE912698A46984692
:100DA000149C17460AB1002313700CB10023238052
:100DB0002046FFF7C9FA80B30A210720FFF7C0FBDE
:100DC0000A210120FFF77AFB8DF80BA00AF1310A06
:100DD0008DF80A50554440F22F238DF80C50002511
:100DE000ADF80830019400952B462022052102A879
:100DF000FFF715FC88B19DF80C3043B3002C4BD0A5
:100E0000FFF74EFA9DF80C20000283B2FF2A2380E0
:100E100006D1284643F05A0323800AB0BDE8F08784
:100E2000FE2A04D143F05B0323802846F5E7FD2A20
:100E300004D143F05C0323802846EEE7FC2A0CBF74
:100E400043F05D0343F0350323802846E5E717B1FF
:100E50009DF80D303B705EB19DF80E3033709DF8FB
:100E60000F3073709DF81030B3709DF81130F3702F
:100E7000B9F1000F07D09DF812209DF8133003EB55
:100E80000223A9F80030B8F1000F07D09DF8143004
:100E9000012088F80030C0E72046BEE70120BCE70B
:100EA0002DE9F0418EB0149D04460F461646984633
:100EB0000DB100232B8000230295CDE900330DF105
:100EC00017020DF11601384600F0B2FC002800F0C0
:100ED0009A809DF81630022B77D853B19DF81720D1
:100EE000002A72D03CB9012B5ED1062A03D15724C7
:100EF0006CE0002CFBD02846FFF726FA002800F013
:100F000082800A210720FFF71BFB0A210120FFF73F
:100F1000D5FA002C0CBF1A2319238DF818300123A1
:100F20008DF81A708DF81930A6B133788DF82080BD
:100F30008DF81B3073788DF81C30B3788DF81D3028
:100F4000F3788DF81E304FEA18238DF81F300723F1
:100F50008DF81930002211469DF8190001300B461A
:100F60000EAC01319842C9B2234439DA002403F8A7
:100F7000202C06A80195009423462022FFF74FFB62
:100F8000002840D09DF81A307BB3F42B2DD0002DD3
:100F900039D0FFF785F99DF81A30C3F1800343EA91
:100FA00000202880204618E00EAA02F8204D234693
:100FB000CDE90145009421463846FFF7E9FE60B1CE
:100FC0009DF81830002B96D191E75424DDB1FFF73E
:100FD00067F944EA0020288000200EB0BDE8F081C7
:100FE00013F8203C1A44D2B2B9E79DF816300BB979
:100FF0000120F2E70824FA20013C01F075FA14F010
:10100000FF04F8D1F4E70020E7E700002DE9F04302
:101010008BB0129C8146884617461E460CB10023B1
:10102000238021462C48FFF7E7FA054620B100252A
:1010300028460BB0BDE8F0832046FFF785F900286D
:10104000F5D00A210720FFF77BFA0A210120FFF7DC
:1010500035FA2D238DF80830F31C8DF809302B4616
:101060008DF80C608DF80A908DF80B80B6B29AB2AC
:10107000B24223D3002319469DF8090001308AB2F9
:1010800082420AAE01F1010132441DDD02F8203C2A
:101090000023019400932022C9B202A8FFF7BFFAEF
:1010A0000028C5D09DF80A309BB1002CC0D0FFF7B6
:1010B000F7F8000240F041002080B9E7F95C02AA8D
:1010C0001A4451710133D2E712F8202C1344DBB2D9
:1010D000D5E70125ACE700BF5C2A00082DE9F04FF9
:1010E0008DB081460E46169F189C98460BB193F81A
:1010F00000A00CB1002323804FF47A7B00250BFB6A
:1011000002FB5D4510D12CB1FFF7CAF8000240F098
:10111000100020800025B8F1000F01D088F800A051
:1011200028460DB0BDE8F08F00F056FB20B9012035
:1011300001F0DAF90135E4E7FFF7B2F800F05F03F8
:1011400043F00203984283461AD04FF47A75FFF7B2
:10115000A7F85845039008D0012001F0C5F96B1E8F
:10116000039A9DB29346002DF1D10BF05F0040F041
:101170000200834504D0FFF7A3F80A2001F0B4F978
:1011800040F20123F2B2ADF810308DF81320330A8B
:1011900003328DF8123013448DF81430002301947B
:1011A00000931322052104A8FFF739FA0028B1D0D3
:1011B0009DF8123013B31CB1FFF772F800022080C3
:1011C0009DF81230FE2B14D00AD8FD2B21D0002C14
:1011D00000F0A9802388002543F02F0323809AE79D
:1011E0001CB1238843F022032380C82001F07CF93E
:1011F00090E71CB1238843F0230323809DF814203B
:101200009DF8153003EB02239BB29E4201D31E468C
:1012100007E034B1238813F0FF0F02D143F0240319
:10122000238042489DF813A0FFF7BEF90028179BC2
:101230003DDD3BB19DF81B209DF81A3003EB0223E6
:10124000179A13805FB19DF81E303B709DF81F30D8
:101250007B709DF82030BB709DF82130FB7000271B
:101260003D46AE427FF657AF00210520FFF726F935
:101270004CF2503BFFF714F80CB10302238008B185
:10128000820620D5012001F02FF9BBF1010BF1D12D
:101290001CB1238843F020032380A7B90A2105202D
:1012A000FFF74EF9052001F01FF90127D9E713B127
:1012B0000023179A1380002FD1D000233B707B703E
:1012C000BB70FB70CBE7711B2029A8BF202109EB65
:1012D0000500C9B2FFF772F80544ADB2AE4202D8BC
:1012E000012001F001F9FEF7DBFFFF2819D010F013
:1012F0004007B6D0AE427FF60EAF761B202E3FF7EA
:101300000AAFFEF7CDFF00283FF405AF83063FF597
:1013100002AF09EB0500F1B2FFF750F80544ADB29A
:10132000F9E600279DE72546F5E600BF2C2A0008D0
:101330002DE9F0438BB0139D80460F4691461E4623
:101340000DB100232B8029463548FFF755F9044697
:1013500020B1002420460BB0BDE8F0832846FEF7FC
:10136000F3FF0028F5D00A210720FFF7E9F80A214A
:101370000120FFF7A3F81B2E334628BF1B239A1C1E
:101380008DF809209DF848208DF808808DF80A20F6
:1013900022468DF80B709BB291B28B4207D902A9FD
:1013A000114419F8020001321B2A0871F4D10023FC
:1013B0009DF809001946013003E012F8202C13446F
:1013C000DBB28AB282420AAE01F101013244F4DD9D
:1013D000B8F1280F02F8203C1CD1FF2F0CBF4FF4AE
:1013E0007A730A23002201950092C9B2202202A832
:1013F000FFF715F90028ADD09DF80A406CB9002D13
:10140000A8D0FEF74DFF9DF80A30803343EA002054
:1014100028809FE74FF47A73E4E701249AE700BF3E
:10142000242A00082DE9F04F8BB0189E05460C4683
:10143000924699469DF850B0BDF85470BDF858805A
:101440000EB1002333803046FEF77EFF00284FD0D8
:101450000A210720FFF774F80A210120FFF72EF870
:101460004FEA18238DF80A303B0A8DF80C30002320
:101470008DF808A08DF80B808DF80D708DF80EB0EA
:101480001FFA8BF299B2914235D300210A460BF133
:1014900005038DF809300BF1060B8BB25B450AA8EA
:1014A00001F1010103442DDD03F8202C9DF85C308F
:1014B0009DF809101E2B28BF1E23C3EB431203EB1C
:1014C0008203DB009BB203310093019600232022AC
:1014D000C9B202A8FFF7A3F850B19DF80A30E3B9EA
:1014E0009DF80920227021789AB291420FD80120EC
:1014F0000BB0BDE8F08F19F8030002A91944C871B8
:101500000133BFE713F8203C1A44D2B2C5E702AA60
:101510001A449278EA540133E5E70020E8E7000036
:101520000023F7B52E4E0C4601937060154602B1AC
:10153000138003882B4F03F0380301930188BC42CA
:1015400021F038014FEA01414FEA1141018003883F
:1015500043F010030380018821F001014FEA0141AB
:101560004FEA1141018029462CD90120FFF718F9D3
:1015700068B37068BC42018821F038014FEA01412C
:101580004FEA11410180019B028843EA02039BB2AA
:1015900003801FD8FA2000F0A7FFFA2000F0A4FF74
:1015A000FA2000F0A1FFFA2000F09EFF00212B4658
:1015B0000D4A084600F03FF848B10C48FEF7F4FF2A
:1015C000012005E00220FFF7EBF80028D1D1002030
:1015D00003B0F0BD038843F001030380DAE700BFE6
:1015E00030000020FF2C310118000020542A000890
:1015F00013B5049CCDE9003413460A460146282061
:10160000FFF796FE02B010BD1FB504AC04F8011D33
:101610000123009203212246FFF7F8FC04B010BD1D
:10162000002307B51A46009101460120FFF738FC58
:1016300003B05DF804FBF0B507468BB00E461546C7
:101640001C460BB1002323802046FEF77DFEB0B37D
:101650000A210720FEF774FF0A210120FEF72EFF62
:101660001F23ADF808308DF80A3000230194009351
:101670002022032102A8FEF7D2FF00B377B19DF824
:101680000A309DF80B2002EB03229DF80C3003EB8F
:1016900002229DF80D3003EB02233B6016B19DF84A
:1016A0000E3033709DB100239DF80F109AB28A421C
:1016B00002D2172B05D11A4600230120AB540BB0E0
:1016C000F0BD02AA1A44127AEA540133EEE701206F
:1016D000F5E730B505468BB00C4609B100230B8009
:1016E0002046FEF731FEC8B10A210720FEF728FF89
:1016F0000A210120FEF7E2FE1023ADF808308DF834
:101700000A300023019400932022032102A8FEF74F
:1017100086FF18B101209DF80A302B700BB030BD48
:1017200030B505468BB00C4609B100230B8020462E
:10173000FEF70AFEC8B10A210720FEF701FF0A21C1
:101740000120FEF7BBFE1223ADF808308DF80A30F9
:101750000023019400932022032102A8FEF75FFFDB
:1017600018B101209DF80A302B700BB030BD30B598
:1017700005468BB00C4609B100230B802046FEF7CE
:10178000E3FD10B900200BB030BD0A210720FEF7A1
:10179000D7FE0A210120FEF791FE1123ADF8083093
:1017A0008DF80A300023019400932022032102A81F
:1017B000FEF735FF0028E5D00DF109026B1E05F19B
:1017C0000E0012F8011F03F8011F09B19842F8D169
:1017D00000230120EB73D6E708B5FEF761FDFF2873
:1017E00014BFC0F30010002008BD0000F8B5054686
:1017F000FEF756FDFF2817D0FEF752FDA0B10024DA
:101800000A4FE65D3046FEF75BFD0A2000F06CFEF5
:10181000FEF746FD864207D10134062CF1D10123A3
:1018200005B128701846F8BD0023F9E7062A00081C
:101830002DE9F0478AB0149F8246DDE912480E4632
:10184000154699460FB100233B803846FEF77CFDD4
:1018500030B30A210720FEF773FE0A210120FEF7AC
:101860002DFE4FF48A7301970027ADF808308DF8EC
:101870000AA000970AF1150A3B462022042102A87B
:101880008DF80BA0FEF7CBFE50B19DF80B3053B195
:1018900006B137700DB9012002E0002301202B7042
:1018A0000AB0BDE8F08716B19DF80C30337015B161
:1018B0009DF80D302B70B9F1000F07D09DF80E2068
:1018C0009DF80F3003EB0223A9F8003064B10DF14D
:1018D0000F02631E04F10F0112F8010F03F8010F4C
:1018E0008B42F9D10023E373B8F1000FD3D09DF8F8
:1018F00021209DF8223003EB0223A8F80030CAE72C
:101900001FB5069C02940024CDE90044FFF7E6FBD6
:1019100004B010BD2DE9F04380468DB0C5480D469A
:1019200017461E46149CFEF73FFE002800F39780E2
:101930000CB1002323802046FEF706FD08B90025E0
:1019400052E00A210720FEF7FBFD01200A21FEF7E5
:10195000B5FD41F622530CA820F8203D002318F8CD
:10196000032022B1C11801330D2B8A70F7D1002357
:101970008DF81F30EA5C22B1C11801330D2B0A74B7
:10198000F8D100231A468DF82D308DF82E70C15CE9
:1019900001330A441F2BD2B2F9D100278DF82F2032
:1019A0002022019400973B461146FEF738FE00289E
:1019B000C5D09DF812506DB1B84606EB8606B0450D
:1019C00016D1002CBBD0FEF76BFC000240F03200B9
:1019D0002080B4E7002CB2D0FEF762FC9DF81230F4
:1019E000803343EA0020208028460DB0BDE8F08314
:1019F000C827FA2000F078FDFA2000F075FD013FBD
:101A0000FA2000F071FDBFB2FA2000F06DFD002F4A
:101A1000EFD121460DF10F00FFF782FE01280546A8
:101A20000BD19DF80F30042B00F00A8108D8022B4F
:101A300000F0E680032B00F0F18008F10108BEE71A
:101A4000052BD1D0FF2BF8D1002C3FF478AFFEF757
:101A500027FC000240F04C0020803D46C4E7764859
:101A6000FEF7A2FD00280ADC7448FEF79DFD002861
:101A700005DB204600F0F0F8FA2000F035FDB8F163
:101A8000000F3BD1002200943B461146FF20FFF798
:101A9000AFFD00283FF453AF4FF0000806EB860976
:101AA000A9F1070906EB860646458AD0C827FA2021
:101AB00000F01AFDFA2000F017FD013FFA2000F0B7
:101AC00013FDBFB2FA2000F00FFD002FEFD1214629
:101AD00004A8FFF725FE012805460CD19DF810301B
:101AE000042B00F0AD8000F28480022B00F088808F
:101AF000032B00F0908008F10108D5E7434608F178
:101B00002001A3EB080213F8019BD2B2B9F1000F38
:101B100007D08B42F5D120221B3A5FFA82F91B22B3
:101B200001E01A2AF8D80023009441461846FFF72E
:101B30005FFD00283FF403AFB9F1000F13D1002D72
:101B4000A0D02B4605F140015A1B13F8018BD2B2ED
:101B5000B8F1000F12D09942F6D140221B3A5FFA39
:101B600082F81B220CE0009400234A4608F11B0176
:101B70001020FFF73DFD0028E1D1E0E61A2AEDD85C
:101B80000094002329460120FFF732FD00283FF48E
:101B9000D6AEB8F1000F3FF475AFB8F11A0F82BF9F
:101BA000A8F11B024FF01B085FFA82F900944FF076
:101BB0000003424605F11B014FF0200098BF4FF093
:101BC0000009FFF715FD00283FF4B9AEB9F1000F89
:101BD0003FF458AF4A46092A28BF0922009400233F
:101BE00005F136012120FFF703FD00287FF44AAFFD
:101BF000A5E6052B3FF4F8AEFF2B3FF425AF7AE7BF
:101C0000002C3FF49CAEFEF74BFB000240F04B0073
:101C100020803D46E8E6C1453FF76DAF002C3FF41C
:101C20008EAEFEF73DFB000240F04A0020803D46AC
:101C3000DAE600BF442A00084C2A0008642A00089B
:101C4000002C3FF47CAEFEF72BFB000240F04D0071
:101C500020803D46C8E600BF30B501468BB0054642
:101C60001948FEF7C9FC044618B1002420460BB001
:101C700030BD05B128802846FEF766FB0028F4D069
:101C80000A210720FEF75CFC0A210120FEF716FC62
:101C90000023202201950093032102A8ADF808201B
:101CA0008DF80A20FEF7BBFC0028DFD09DF80A4023
:101CB00044B9002DDAD0FEF7F3FA000240F04E00EE
:101CC0002880D3E70124D1E7642A00082DE9F04FEA
:101CD0001C46002391B0074616468DF81F308A46F1
:101CE00061B924B90025284611B0BDE8F08FFEF790
:101CF000D7FA000240F04F002080F3E70B4601F5D1
:101D00008072A3EB0A0813F9011B1FFA88F819B1B6
:101D10009342F6D14FF4807808F1FF33FE2BE0D8E0
:101D2000B8F11B0F2AD8002C61D121468B48FEF751
:101D300063FC05460028D5D108AA9046884B03F1DC
:101D4000100E9446186859680833ACE803007345D0
:101D50006246F6D100231AF9031018F903209142C4
:101D600040F0A0800133102BF5D1002318F8032098
:101D7000FA540133102BF9D10125B4E721467948F3
:101D8000FEF73AFC0028CED104B120804FF0000BC2
:101D9000A8EB0B09B9F1170FCCBF4FF018095FFA88
:101DA00089F9CDE90364CDE901B8CDF800900AEBDB
:101DB0000B0336220DF11F0108A8FFF733FB054680
:101DC000002856D1002C8DD0FEF76AFA9DF82030FD
:101DD000000280B2FC2B20803FD02FD89C2B44D017
:101DE00001D3FA2B3DD240F03D0020807BE7002359
:101DF00023809AE712F8202C1344DBB27BE008EB37
:101E00000300C078F854002800F0A38001330F2BA2
:101E100040F09B8019469CE0002C3FF463AFFEF736
:101E20003FFA9DF82230000280B2FA3B2080052B59
:101E3000D9D8DFE803F01616120E0A06FE2B04D0DE
:101E400007D940F03A0020804DE740F03B00208069
:101E500049E740F03C00208045E740F05E002080EC
:101E600041E740F05F0020803DE740F04F002080D8
:101E700039E7CB441FFA8BFBC34589D300239DF878
:101E80001F009AB2904202D80023BB5474E708A9FD
:101E900019444978F9540029F6D001330F2BF0D1B9
:101EA0001A46F1E72046FEF74FFA00283FF41AAF32
:101EB0000A210720FEF744FB0A210120FEF7FEFA63
:101EC00025238DF8203000238DF822601AF90310A5
:101ED00008EB03009AB2C17019B101331B2BF5D185
:101EE0001A46D11C10AB5818002300F8203C1846A5
:101EF00002328DF8212082B291420DF1400C00F1A6
:101F000001006244BFF676AF1E2E28BF1E2602F8DF
:101F1000203CC6EB461306EB83069DF82110F60025
:101F20000331B6B20194009600232022C9B2404684
:101F3000FEF775FB00283FF4D5AE9DF82230002B4C
:101F40007FF46AAF9DF82120023A934299B2FFF6DE
:101F500056AF002301257B54C5E600BF1C2A0008AC
:101F6000342A00086C2A000870B505468AB00E466F
:101F700014460AB1002313802046FEF7E5F910B994
:101F800000200AB070BD0A210720FEF7D9FA0A2105
:101F90000120FEF793FA132301940024ADF80830D2
:101FA0008DF80A30009423462022032102A8FEF770
:101FB00036FB0028E4D09DF80920002AE0D09DF8E7
:101FC0000A30023A337023469A4299B203DC002366
:101FD00001206B54D5E702A81844C078E8540028C3
:101FE000F5D001331B2BEFD11946F0E770B505464C
:101FF0008AB00E4614460AB1002313802046FEF72D
:10200000A3F978B30A210720FEF79AFA0A210120E2
:10201000FEF754FA40F21523ADF8083000238DF88E
:102020000B6017368DF80A50019435440093202236
:10203000052102A88DF80C50FEF7F1FA90B1142496
:10204000FA2000F051FAFA2000F04EFA013CFA2092
:1020500000F04AFAA4B2FA2000F046FA002CEFD1C0
:102060009DF80A000AB070BD70B504468AB00E46ED
:1020700015460AB1002313802846FEF765F910B90A
:1020800000200AB070BD0A210720FEF759FA0A2184
:102090000120FEF713FA40F21B338DF80A40ADF829
:1020A00008301E34330A1C44F6B234448DF80D4017
:1020B00000248DF80B300195009423462022062140
:1020C00002A88DF80C60FEF7AAFA0028D8D09DF877
:1020D0000A304BB1002DD3D0FEF7E2F8000240F0F9
:1020E0003F0028802046CCE70120CAE72DE9F04FC9
:1020F0009946002393B01E9C06468A4693469DF857
:1021000070809DF87470ADF8163004B123802146BC
:102110007C48FEF771FA60B1022E0AD9FEF7C0F8CA
:102120000025000240F077002080284613B0BDE86B
:10213000F08F21467448FEF75FFA88B90DF1160159
:102140004046FFF76DFA054650B9BDF81620D3B2E8
:10215000553B012B04D80CB90025E6E72280E4E7C3
:102160006A48FEF721FA002806AD61DA00231BF960
:1021700003109AB2E95419B101330F2BF7D11A4663
:1021800012AB1A44002302F8303C2046FEF7DCF87C
:102190000028E1D00A210720FEF7D2F901200A2108
:1021A000FEF78CF941F218630022ADF828304FEAAF
:1021B0001A238DF82A608DF82B308DF82CA00AA8F0
:1021C000A95693B200293CD1002105339BB29AB2A3
:1021D000142A3DD900224FEA19238DF83D301346C9
:1021E0008DF83E908DF83F80815C01320B44182AB7
:1021F000DBB2F9D14FF000098DF840300194CDF8F1
:102200000090052320221921FEF709FA0028A3D007
:102210009DF82A50FDB1002C9ED0FEF741F89DF8A4
:102220002A304D46C3F1800343EA002020807CE73A
:1022300023463A4659462846FFF748FD0028A4D1D0
:102240008AE783180132102A5971B9D11346BBE7C6
:10225000C1540133BBE716F0FD0F51D006F00F0655
:10226000012E7FF479AFA946AA4607EB87074F45B1
:102270003CD0C8268DF815A0FA2000F035F9FA20D8
:1022800000F032F9FA2000F02FF9FA2000F02CF9D2
:10229000013EF1D1CDE90164009633460DF11502FE
:1022A00031464046FFF7C4FAE8B19DF81530062BD9
:1022B00019D8DFE803F00418252525250E00002C89
:1022C0003FF433AFFDF7ECFF000240F03300208015
:1022D0002BE7002C3FF429AFFDF7E2FF000240F0AE
:1022E0003900208021E709F10109C0E7002C3FF403
:1022F00033AFFDF7D5FF000240F03400208014E733
:10230000012512E7742A0008642A00081C2A000824
:10231000FEE77047F0B5CA78002502F00F03D20639
:1023200001D58A7813430A784FF00F0E12F0FF0F91
:102330004FF001021CD004680F8802FA05F63740FE
:10234000B74211D14FEA850C0EFA0CF724EA0707C1
:1023500003FA0CF43C43CF78282F02D0482F02D048
:1023600002E0466100E006616D1C082DE4D30460C4
:102370000C88FF2C1ED944685FF0000606F10807A0
:1023800002FA07F50F882F40AF420FD14FEA860CB3
:102390000EFA0CF7BC4303FA0CF73C43CF78282F16
:1023A00000D14561CF78482F00D10561761C082EF9
:1023B000E4D34460F0BDFEE7F8B50121042000F04D
:1023C000FBF9104D10242C600E4FADF800408DF835
:1023D00003400326103F8DF8026069463846FFF738
:1023E00099FF0121042000F0E7F902202860ADF8F0
:1023F00000008DF803408DF8026069463846FFF70B
:1024000089FFF8BD1008014010B5FFF7D5FFBDE802
:10241000104000F001B8000030B587B00121042061
:1024200000F0CAF9E020ADF8140018248DF8174028
:1024300003208DF8160005A91848FFF76BFF01214E
:102440000D03284600F0B8F90121284600F0C0F934
:102450000021284600F0BCF90020ADF80000ADF8DE
:102460000800ADF80C404FF48271ADF80400ADF8EF
:102470000210ADF80600ADF80E00E9100720084C78
:10248000ADF80A10ADF810006946204600F0B6F924
:102490000121204600F0A8F907B030BD0008014036
:1024A0000030014001460548028822F038020280CF
:1024B00002880A430280012100F096B900300140F1
:1024C000102108B1024801E00148001D0160704779
:1024D00010080140022108B1024801E00148001D36
:1024E000016070471008014000F050BA10B500209C
:1024F000FFF7E6FF012000F08DF80020FFF7EAFF6C
:10250000052000F087F80120FFF7E4FF4FF49670F4
:1025100000F080F80120FFF7D3FFBDE8104040F243
:10252000ED1000F077B8000010B594B00020FF2146
:102530008DF808008DF840100390049005900690E7
:10254000ADF81C00FFF7D2FF0820FFF7ABFF284CC7
:10255000012000F05FF807AA21462648FEF7E0FFB9
:1025600088B112A8FFF742F970B123480090FEF736
:1025700069F900990190884207D208460199401AEA
:10258000052802D9FEE7FEE7FEE707AA00210120A1
:10259000FFF72CFD002829D007A902A8FFF799F81A
:1025A000002823D09DF80800012801D003281CD161
:1025B00007A800901423012210A113A0FFF7AAF985
:1025C000002813D00A2103A800F036F800280DD007
:1025D00007A910A8FFF7A4F8002807D007AA11A997
:1025E00008A8FFF7C1FC002800D0012014B010BDDE
:1025F00080A8120100300140A0860100313233343E
:102600003536373839300000416E796C696E6B6948
:102610006E21000070B50646002509E00024FA206E
:10262000FFF762FF641CA4B2042CF8D36D1CADB29A
:10263000B542F3D370BD0000F8B5074600200D4643
:10264000ADF8000004464FF47A760FE0694638464C
:10265000FFF78DF8012804D108A13846FEF798F954
:1026600030B93046FFF7D6FF641CA4B2AC42EDD3BC
:10267000AC4201D30020F8BD0120F8BD302E302E31
:10268000302E3000ADF5016D00242046ADF8044831
:102690008DF808480DF604020421FEF7B5FFE8B3F3
:1026A0000DF6040B9DF808085A4614218DE8070022
:1026B00040F2D24337A241F2E1010220FFF716FDBA
:1026C00068B35A4678219DF80808FFF7CDFC38B367
:1026D00000214FF4006001AA82465154491C89B27E
:1026E00091465145F8D34FF4806822468DF808484A
:1026F0000DF6040341464846FEF7D2F8FFF76CF8A2
:102700000028FBD041F288370DF608033A465146BF
:1027100001A8CDF800B0FFF7F3F802E007E007E00A
:1027200007E00028EAD000260446354626E0FEE70A
:10273000FEE7FEE7601B4146404500D9084681B2EE
:1027400009EB05000DF604039DF80828FEF7A8F82C
:10275000284485B2A542D1D2BDF8040810F0FF0F7D
:1027600011D0C0B2142810D015280ED018280ED0C1
:102770005FF0FA00FFF7B8FE761CB6B2A542BDD2F4
:10278000BE42BBD8D6E70026F6E76320F2E7642016
:10279000F0E70000312E312E312E3100FEE7704778
:1027A0000249084302490860704700000000FA052A
:1027B0000CED00E070470000044A0029916901D047
:1027C000014300E081439161704700000010024026
:1027D000044A0029D16801D0014300E08143D1605F
:1027E00070470000001002400029018802D041F02B
:1027F000400101E021F040010180704730B50288BE
:102800004C8802F441530A88CD8822438C882C439B
:1028100022430C8922434C8922438C892243CC8950
:1028200022431A430280828B22F400628283098A47
:10283000018230BD704700000CB50021264801918F
:102840000091026842F4803202604FF4A063026893
:1028500002F400320092019A521C0192009A12B9BD
:10286000019A9A42F3D10268920333D50121009173
:102870001A490A6842F010020A600A6822F003024C
:102880000A600A6842F002020A60416841604168D9
:102890004160416841F480614160416821F47C11EC
:1028A0004160416841F4E8114160016841F0807184
:1028B000016001688901FCD5416821F00301416094
:1028C000416841F0020141604168C1F38101022980
:1028D000FAD10CBD00910CBD001002400020024056
:1028E0004FF0E0210428086903D020F004000861BB
:1028F000704740F00400FAE7704700000F4810B539
:10290000016841F00101016041680D4A11404160D8
:1029100001680C4A11400160016821F480210160C6
:10292000416821F4FE0141604FF41F018160FFF70F
:1029300083FF05494FF00060086010BD00100240A1
:102940000000FFF8FFFFF6FE08ED00E0FEE70000E4
:1029500010B56FF00400FFF7C3FF0948094900688C
:10296000B0FBF1F0C1B2084801EB41020170C2EBCB
:10297000C1114FF6FF7202EAC101418010BD000093
:102980000400002000127A00000000200B490978A2
:1029900048434FF0E021486100228A61086940F015
:1029A000010008610869C30701D0C003FAD50869AE
:1029B00020F0010008618A617047000000000020DB
:1029C0004FF4A060FFF7ECFEFFF7C2FFFFF71CFD1E
:1029D000FFF7AAFD10B1FFF755FEFEE7FEE710B5C1
:1029E000FEF752F84FF00001016010BD53544D3313
:1029F00032463100000000000000000056312E3148
:102A00002E382D51000041494B5BDB41312E322ED7
:102A1000302D3100312E312E382D3100312E312E16
:102A2000362D3300312E312E362D3400312E312EFD
:102A3000362D35003235352E3235352E3235352EA0
:102A400032353500312E312E362D3700312E312ED4
:102A5000382D3800312E312E362D4500312E312EB5
:102A6000362D4600312E312E362D4E00312E312E90
:102A7000382D5200312E312E382D58009C2A000856
:102A800000000020300000006C010008CC2A000883
:102A900030000020682200008801000800000000CB
:102AA00000A24A040000000000000000010203042C
:102AB00006070809312E312E312D310000000000AB
:0C2AC00000000000000102010004000002
:0400000508000131BD
:00000001FF
