:020000040800F2
:1000000098220020D1010008CF2800084F240008C2
:10001000CD280008A92300087D2A00080000000060
:10002000000000000000000000000000652900083A
:10003000AB23000800000000E5280008292A00087A
:10004000EB010008EB010008EB010008EB010008E0
:10005000EB010008EB010008EB010008EB010008D0
:10006000EB010008EB010008EB010008EB010008C0
:10007000EB010008EB010008EB010008EB010008B0
:10008000EB010008EB010008EB010008EB010008A0
:10009000EB010008EB010008EB010008EB01000890
:1000A000EB010008EB010008EB010008EB01000880
:1000B000EB010008EB010008EB010008EB01000870
:1000C000EB010008EB010008EB010008EB01000860
:1000D000EB010008EB010008EB010008EB01000850
:1000E000EB010008EB010008EB010008EB01000840
:1000F000EB010008EB010008EB010008EB01000830
:10010000EB010008EB010008EB010008EB0100081F
:10011000EB010008EB010008EB010008EB0100080F
:10012000EB010008EB010008EB010008EB010008FF
:1001300000F002F800F03CF80AA090E8000C8244BD
:100140008344AAF10107DA4501D100F031F8AFF29A
:10015000090EBAE80F0013F0010F18BFFB1A43F0A5
:1001600001031847402A0000602A0000103A24BF0B
:1001700078C878C1FAD8520724BF30C830C144BF0C
:1001800004680C607047000000230024002500264E
:10019000103A28BF78C1FBD8520728BF30C148BFEA
:1001A0000B6070471FB502F0B2FC1FBD10B510BD4B
:1001B00000F059FC1146FFF7F5FF02F099FC00F042
:1001C00077FC03B4FFF7F2FF03BC00F07FFC0000F4
:1001D0000948804709480047FEE7FEE7FEE7FEE7DB
:1001E000FEE7FEE7FEE7FEE7FEE7FEE70448054917
:1001F000054A064B704700002D2A0008310100080F
:1002000098000020982200209802002098020020E8
:10021000002170B50B464EF66126094A54681180DC
:100220002589AD0704D549B9207300BF00BF70BD53
:1002300001339BB2B3424FF00101F1D11380F3E7D8
:1002400030000020002330B54EF6612513494A687E
:100250000B801489240603D4148904F4C0541CB1FF
:1002600001339BB2AB42F4D1138913F041030AD19D
:1002700010734EF6612518460B801489E40704D5E7
:100280004BB9107B30BD9389EEE7013080B2A842B4
:100290004FF00103F1D10880F3E700BF30000020E8
:1002A00010B5002002F058F90420FFF7B1FF00203C
:1002B000FFF7C8FF0446012002F04EF9204610BDAA
:1002C00010B50446002002F047F90120FFF7A0FF17
:1002D0002046FFF7B7FFBDE81040012002F03CB90F
:1002E00070B5064669B3202928BF202100200C469E
:1002F00002F032F90220FFF78BFF0020FFF788FFA2
:10030000354615F8010BFFF783FFAB1BDBB29C42B0
:10031000F7D800214EF661250B460A4A5468118031
:100320002089000605D451B9BDE87040012002F0D3
:1003300013B901339BB2AB424FF00101F0D11380EE
:10034000F2E770BD3000002038B504464CF250355D
:10035000FFF7A6FFFF2801D0C3070FD4012002F04A
:100360000FF9681E85B2002DF2D14CB1FFF798FF4E
:10037000000240F010002080284638BD0120FCE734
:100380002046FAE738B504464CF25035FFF788FFAF
:10039000FF2801D083070DD5012002F0F1F8013DBF
:1003A000F4D14CB1FFF77CFF000240F01100208037
:1003B000284638BD0120FCE72046FAE72DE9F04148
:1003C00000296CD0202928BF2021064600200D4698
:1003D00002F0C2F80022384F144613463A8078687B
:1003E0004EF6612C04E08BB263454FF0010460D0FF
:1003F0000289591C9207F6D5002C5AD103230373A6
:1004000000BF00BF0020FFF71DFF002378681C46D7
:100410003B804EF6612C04E08BB263454FF0010443
:1004200043D00289591C9207F6D5002C3DD10024F7
:10043000047300BF00BFB5F1010E34D04EF6612148
:10044000A046786806EB040C002301E08B4204D040
:1004500002890133D2079BB2F8D50134037BE4B2A1
:1004600074458CF8003080F80C80EBDB26440023C8
:100470004EF6612C1C463B8004E08BB263454FF086
:10048000010414D00289591CD207F6D57CB9037B2C
:100490000120337002F060F82846BDE8F0810D4677
:1004A0002846BDE8F0817868E1E73B80BFE73B8004
:1004B000EDE73B80A2E700BF300000202DE9F843C4
:1004C000064601248846FFF7EBFEB44064B244EAD6
:1004D0000003DBB29842074603D1022E01D0052E5D
:1004E0002CD14EF66025FFF7DBFE431EDBB2FD2B61
:1004F000814601D8B84207D0013D0120ADB202F0DB
:100500003FF84F46002DEED144EA0700C0B28742C3
:1005100006D1022E06D0052E10D100F0FB0001E01E
:10052000022EFAD1FFF7CCFEFFF7BAFEB8F1000FAA
:1005300004D04046BDE8F84302F022B8BDE8F88395
:100540002DE9F04105460124AC40E4430E46FFF797
:10055000A7FE64B204EA0003DBB29842074621D04A
:100560004EF66025FFF79CFE431EDBB2FD2B804656
:1005700001D8B84207D0013D0120ADB202F000F829
:100580004746002DEED104EA0700C0B2B84209D0B8
:1005900000F0FB00FFF794FE26B13046BDE8F041C5
:1005A00001F0EEBFBDE8F08170B500242646114D84
:1005B000E2B2AB5C533B012B98BFAE54835C533B20
:1005C000012B98BF8654A956835641B11BB199425D
:1005D00004F10104ECD0994204DD012007E0002B76
:1005E000FBDB05D08B42D4BF01204FF0FF3070BD44
:1005F0001846FCE71800002010B50C46FFF7D4FFA2
:10060000002808DA4CB1FFF74BFE000240F07700FB
:100610002080012010BD0020FCE70120FAE72DE931
:10062000F047099C054691461E460778FFF758FE9D
:100630000A2001F0A5FF4FF6FF78013EB6B246450D
:1006400005D12046FFF79EFE70B9002047E0FA2052
:1006500001F096FFFA2001F093FFFA2001F090FFDD
:10066000FA2001F08DFFE8E74FF47A76BDF82030EC
:100670004FF0000A5E434CF25033B6FBF3F60136FE
:100680001FFA8AF39E42E0D94CF25038FFF708FE79
:100690008038C0B27E2824D80CB10023238049467C
:1006A0002846FFF78BFE0A2001F06AFF0021072091
:1006B000FFF746FF00231A466978481C5E1C9BB270
:1006C000984227DA29448B78934228D0002CBCD05A
:1006D000FFF7E6FD000240F0300020800020BDE87A
:1006E000F08708F1FF3801201FFA88F801F048FF71
:1006F000B8F1000FCAD154B1FFF7D2FD000220803B
:10070000012001F03DFF238843F0160323800AF106
:10071000010AB5E7EB5C1A44D2B23346CEE72B7838
:1007200023F08003BB420DD0362F01D1252B09D0F9
:10073000002C8AD0FFF7B4FD000240F03100208089
:100740000020CCE700211548FFF756FF20BBAB780F
:10075000782B21D1002C3FF478AFFFF7A1FD0002E8
:1007600080B22080EB78032B11D8DFE803F015026C
:10077000070B40F0450020800020B0E740F0460025
:10078000208062E740F0470020800020A7E740F08B
:10079000480020800020A2E70120A0E78C2B000861
:1007A00030B504468FB00D4609B100230B802846B2
:1007B000FFF7CAFD00283ED00A210720FFF7C0FE40
:1007C00001200A21FFF77AFE42238DF8183000231A
:1007D0001A488DF81A4006ACE218195C0133102B48
:1007E000D170F9D1164A03AB10685168127A03C36D
:1007F0001A70002303A88DF81530E218C15C01338C
:100800000A2BD174F9D11B2300228DF8193013461D
:10081000A15C01320B441D2ADBB2F9D18DF83530D1
:1008200000230195009320221E212046FFF7F7FEAA
:10083000003018BF01200FB030BD00BF1C2B0008D6
:100840002C2B00082DE9F041002407462546DFF84F
:100850004C80BD4208D14120FFF732FD0A2001F053
:100860008FFE2046BDE8F08105F0DA0646F001066D
:100870003046FFF725FD00214046FFF7BDFE48B199
:100880000A2001F07DFEFFF70BFD864208BF013410
:100890000135DEE7012001F073FEF4E73C2B000890
:1008A0001FB502930023CDE9003300F01BF905B01A
:1008B0005DF804FB2DE9FF410B9C05460E460B48F5
:1008C000214617469846FFF797FE68B9BDF82830CD
:1008D0000294CDE900833A4601233146284600F0D0
:1008E00001F904B0BDE8F0810020FAE7842B00088C
:1008F0002DE9FF410B9C05460E46174698460CB164
:100900000023238021460A48FFF776FE68B9BDF828
:1009100028300294CDE900833A4601233146284627
:1009200000F0E0F804B0BDE8F0810020FAE700BF75
:10093000442B000870B505468AB00E4614460AB12D
:10094000002313802046FFF7FFFCF0B10A210720A7
:10095000FFF7F6FD0A210120FFF7B0FD40F2162354
:10096000ADF8083000238DF80B6018368DF80A506A
:100970000194354400932022052102A88DF80C50E3
:10098000FFF74DFE003018BF01200AB070BD00BF58
:100990004FF0000200B5134694469646203922BF18
:1009A000A0E80C50A0E80C50B1F12001BFF4F7AF63
:1009B000090728BFA0E80C5048BF0CC05DF804EB45
:1009C000890028BF40F8042B08BF704748BF20F8B3
:1009D000022B11F0804F18BF00F8012B7047000068
:1009E0004FF0013C50F8042B51F8043B9A4221D1BE
:1009F000A2EB0C03934313EACC1317D150F8042B4A
:100A000051F8043B9A4215D1A2EB0C03934313EA2D
:100A1000CC130BD150F8042B51F8043B9A4209D166
:100A2000A2EB0C03934313EACC13DBD04FF000008E
:100A3000704700BFD01A01BAB1FA81F101F0180174
:100A400022FA01F0CB40C1F12001DBB2C0B2C01AE2
:100A50002CFA01F3D11A914311EAC311E6D1704780
:100A6000704770477047754600F02CF8AE46050099
:100A70006946534620F00700854618B020B5FFF7B9
:100A8000B5FBBDE820404FF000064FF000074FF0E7
:100A900000084FF0000B21F00701AC46ACE8C0099C
:100AA000ACE8C009ACE8C009ACE8C0098D467047A5
:100AB00010B50446AFF300802046BDE81040FFF7B4
:100AC00080BB000000487047380000200149182012
:100AD000ABBEFEE726000200004870473C00002045
:100AE000704700002DE9F04F91B01C9C07460E4660
:100AF000924699461A9DBDF86C800CB10023238064
:100B0000002E00F0EB80B9F1010F13D1B348FFF7CD
:100B10004BFD002804A813DA0023E9569AB2C15409
:100B200019B101330F2BF8D11A4610AB1A44002328
:100B300002F8303C2046FFF707FC50B90025A4E03E
:100B400023461422294601F075F80028F2D1054603
:100B5000C3E0FFF7A5FB00F07B0343F002039842DC
:100B600005461DD04FF47A7BFFF79AFBA84203900D
:100B70000BD0012001F004FD0BF1FF3B039B1FFA9A
:100B80008BFB1D46BBF1000FEED105F07B0040F062
:100B90000200A84204D0FFF793FB0A2001F0F0FC0A
:100BA0004FF48063B9F1010FADF820304FEA1623FE
:100BB0008DF823308DF822A08DF824604FF00003CB
:100BC00033D08DF8253000210A469DF821000130F0
:100BD0008BB2834210AD01F101012B4447DD03F8D4
:100BE000202C00239DF8211001940331009304224E
:100BF000C9B208A8FFF713FD00289FD09DF8225026
:100C0000002D00F0C8801CB1FFF74AFB00022080D5
:100C10009DF82230F63B092B00F2B480DFE803F0A8
:100C2000A9A0988F867D746B622C8DF8259004A8FE
:100C300019569AB281B90020931D9BB208A99AB2A5
:100C4000152A11D94FEA18238DF8363016238DF85E
:100C500037808DF82130B6E708AA1A440133102BEB
:100C60009171E5D11A46E6E758540133E7E713F8E6
:100C7000203C1A44D2B2ABE71CB1238843F01203E4
:100C80002380C82001F07CFC00250A210220FFF708
:100C900015FC022001F074FC0F24FFF701FBFF2874
:100CA00001D043070AD4013C0120A4B201F068FC42
:100CB000002CF2D10A210220FFF700FCAE420CD832
:100CC000B6F5807F09D8F92E00F28580142001F056
:100CD00057FCF043C0B201F053FC2E46304611B031
:100CE000BDE8F08F002C3FF429AF2388002543F0A6
:100CF00013032380C9E7002C3FF420AF238800258D
:100D000043F014032380C0E7002C3FF417AF23887F
:100D1000002543F015032380B7E7002C3FF40EAF06
:100D20002388002543F018032380AEE7002C3FF40E
:100D300005AF2388002543F019032380A5E7002C85
:100D40003FF4FCAE2388002543F01A0323809CE780
:100D5000002C3FF4F3AE238843F01B032380EDE621
:100D6000002C3FF4EBAE2388002543F01C032380C6
:100D70008BE7002C3FF4E2AE2388002543F01D03EF
:100D8000238082E7002C3FF4D9AE2388002543F06E
:100D90001F03238079E70B2001F0F2FBAE427FF6C0
:100DA00074AFA6EB0508B8F1200FCCBF4FF02008B8
:100DB0001FFA88F85FFA88F17819FFF791FA062090
:100DC00001F0DEFB2046FFF7DDFA00283FF45DAFBF
:100DD0004544ADB2E2E70A207DE700BF4C2B000896
:100DE0002DE9F0478AB00546DDE912698A46984642
:100DF000149C17460AB1002313700CB10023238002
:100E00002046FFF7A1FA80B30A210720FFF798FBDD
:100E10000A210120FFF752FB8DF80BA00AF1310ADD
:100E20008DF80A50554440F22F238DF80C500025C0
:100E3000ADF80830019400952B462022052102A828
:100E4000FFF7EDFB88B19DF80C3043B3002C4BD07D
:100E5000FFF726FA9DF80C20000283B2FF2A2380B8
:100E600006D1284643F05A0323800AB0BDE8F08734
:100E7000FE2A04D143F05B0323802846F5E7FD2AD0
:100E800004D143F05C0323802846EEE7FC2A0CBF24
:100E900043F05D0343F0350323802846E5E717B1AF
:100EA0009DF80D303B705EB19DF80E3033709DF8AB
:100EB0000F3073709DF81030B3709DF81130F370DF
:100EC000B9F1000F07D09DF812209DF8133003EB05
:100ED0000223A9F80030B8F1000F07D09DF81430B4
:100EE000012088F80030C0E72046BEE70120BCE7BB
:100EF0002DE9F0418EB0149D04460F4616469846E3
:100F00000DB100232B8000230295CDE900330DF1B4
:100F100017020DF11601384600F0FEFB002800F024
:100F20009A809DF81630022B77D853B19DF8172080
:100F3000002A72D03CB9012B5ED1062A03D1572476
:100F40006CE0002CFBD02846FFF7FEF9002800F0EB
:100F500082800A210720FFF7F3FA0A210120FFF718
:100F6000ADFA002C0CBF1A2319238DF81830012379
:100F70008DF81A708DF81930A6B133788DF820806D
:100F80008DF81B3073788DF81C30B3788DF81D30D8
:100F9000F3788DF81E304FEA18238DF81F300723A1
:100FA0008DF81930002211469DF8190001300B46CA
:100FB0000EAC01319842C9B2234439DA002403F857
:100FC000202C06A80195009423462022FFF727FB3A
:100FD000002840D09DF81A307BB3F42B2DD0002D83
:100FE00039D0FFF75DF99DF81A30C3F1800343EA69
:100FF00000202880204618E00EAA02F8204D234643
:10100000CDE90145009421463846FFF7E9FE60B17D
:101010009DF81830002B96D191E75424DDB1FFF7ED
:101020003FF944EA0020288000200EB0BDE8F0819E
:1010300013F8203C1A44D2B2B9E79DF816300BB928
:101040000120F2E70824FA20013C01F099FA14F09B
:10105000FF04F8D1F4E70020E7E700002DE9F047AE
:101060008AB08246DDE91265894614461F460DB1F5
:1010700000232B8029463848FFF7BEFA804628B166
:101080004FF0000840460AB0BDE8F0872846FFF759
:101090005BF90028F4D00A210720FFF751FA0A2152
:1010A0000120FFF70BFA4FF40B738DF80AA0ADF88F
:1010B00008308DF80B904CB143463278DCB2A24236
:1010C00027D89DF8093023448DF8093000231946AC
:1010D000E01C8AB2824201F1010123DD0AAA224406
:1010E00002F81C3C0023611D019500932022C9B227
:1010F00002A8FFF794FA0028C4D09DF80A30CBB1BB
:10110000002DBFD0FFF7CCF8000240F0400028804F
:10111000B8E702A91944F85C01331B2B0871CDD143
:101120001C46CEE70DF1280C624412F8202C134423
:10113000DBB2CEE79DF80B20327031789AB2914243
:1011400001D9032B02D14FF001089BE702AA1A44F0
:101150001279FA540133F0E7842B00082DE9F043AB
:101160008BB0129C8146884617461E460CB1002360
:10117000238021462C48FFF73FFA054620B1002581
:1011800028460BB0BDE8F0832046FFF7DDF80028C5
:10119000F5D00A210720FFF7D3F90A210120FFF734
:1011A0008DF92D238DF80830F31C8DF809302B466E
:1011B0008DF80C608DF80A908DF80B80B6B29AB25B
:1011C000B24223D3002319469DF8090001308AB2A8
:1011D00082420AAE01F1010132441DDD02F8203CD9
:1011E0000023019400932022C9B202A8FFF717FA46
:1011F0000028C5D09DF80A309BB1002CC0D0FFF765
:101200004FF8000240F041002080B9E7F95C02AAE3
:101210001A4451710133D2E712F8202C1344DBB287
:10122000D5E70125ACE700BF842B00082DE9F0438A
:101230008BB0139D80460F4691461E460DB100238C
:101240002B8029463548FFF7D7F9044620B1002402
:1012500020460BB0BDE8F0832846FFF775F800285C
:10126000F5D00A210720FFF76BF90A210120FFF7CB
:1012700025F91B2E334628BF1B239A1C8DF8092005
:101280009DF848208DF808808DF80A2022468DF8B8
:101290000B709BB291B28B4207D902A9114419F885
:1012A000020001321B2A0871F4D100239DF80900C5
:1012B0001946013003E012F8202C1344DBB28AB245
:1012C00082420AAE01F101013244F4DDB8F1280F87
:1012D00002F8203C1CD1FF2F0CBF4FF47A730A2375
:1012E000002201950092C9B2202202A8FFF797F9C7
:1012F0000028ADD09DF80A406CB9002DA8D0FEF7AB
:10130000CFFF9DF80A30803343EA002028809FE712
:101310004FF47A73E4E701249AE700BF542B0008E6
:101320002DE9F04F8BB0189E05460C469246994623
:101330009DF850B0BDF85470BDF858800EB1002330
:1013400033803046FFF700F800284FD00A210720ED
:10135000FFF7F6F80A210120FFF7B0F84FEA18234B
:101360008DF80A303B0A8DF80C3000238DF808A068
:101370008DF80B808DF80D708DF80EB01FFA8BF282
:1013800099B2914235D300210A460BF105038DF83D
:1013900009300BF1060B8BB25B450AA801F1010184
:1013A00003442DDD03F8202C9DF85C309DF80910D6
:1013B0001E2B28BF1E23C3EB431203EB8203DB006B
:1013C0009BB203310093019600232022C9B202A8E8
:1013D000FFF725F950B19DF80A30E3B99DF80920CF
:1013E000227021789AB291420FD801200BB0BDE84B
:1013F000F08F19F8030002A91944C8710133BFE73F
:1014000013F8203C1A44D2B2C5E702AA1A449278D3
:10141000EA540133E5E70020E8E700000023F7B5D0
:101420002E4E0C4601937060154602B1138003885E
:101430002B4F03F0380301930188BC4221F038019F
:101440004FEA01414FEA11410180038843F0100344
:101450000380018821F001014FEA01414FEA114167
:10146000018029462CD90120FFF79AF968B37068EA
:10147000BC42018821F038014FEA01414FEA114195
:101480000180019B028843EA02039BB203801FD8BC
:10149000FA2001F075F8FA2001F072F8FA2001F054
:1014A0006FF8FA2001F06CF800212B460D4A08462F
:1014B00000F03FF848B10C48FFF776F8012005E04E
:1014C0000220FFF76DF90028D1D1002003B0F0BD54
:1014D000038843F001030380DAE700BF30000020F7
:1014E000FF2C3101180000207C2B000813B5049C50
:1014F000CDE9003413460A4601462820FFF796FE40
:1015000002B010BD1FB504AC04F8011D0123009208
:1015100003212246FFF722FE04B010BD002307B5C9
:101520001A46009101460120FFF7E2FC03B05DF886
:1015300004FBF0B507468BB00E4615461C460BB1B2
:10154000002323802046FEF7FFFEB0B30A210720C8
:10155000FEF7F6FF0A210120FEF7B0FF1F23ADF8CA
:1015600008308DF80A3000230194009320220321D3
:1015700002A8FFF754F800B377B19DF80A309DF840
:101580000B2002EB03229DF80C3003EB02229DF8A6
:101590000D3003EB02233B6016B19DF80E30337023
:1015A0009DB100239DF80F109AB28A4202D2172BE8
:1015B00005D11A4600230120AB540BB0F0BD02AA9E
:1015C0001A44127AEA540133EEE70120F5E730B508
:1015D00005468BB00C4609B100230B802046FEF770
:1015E000B3FEC8B10A210720FEF7AAFF0A21012095
:1015F000FEF764FF1023ADF808308DF80A300023A1
:10160000019400932022032102A8FFF708F818B1E3
:1016100001209DF80A302B700BB030BD30B5054667
:101620008BB00C4609B100230B802046FEF78CFEE0
:10163000C8B10A210720FEF783FF0A210120FEF727
:101640003DFF1223ADF808308DF80A3000230194D5
:1016500000932022032102A8FEF7E1FF18B1012028
:101660009DF80A302B700BB030BD30B505468BB0FD
:101670000C4609B100230B802046FEF765FE10B929
:1016800000200BB030BD0A210720FEF759FF0A21C8
:101690000120FEF713FF1123ADF808308DF80A3052
:1016A0000023019400932022032102A8FEF7B7FF34
:1016B0000028E5D00DF109026B1E05F10E0012F8AD
:1016C000011F03F8011F09B19842F8D1002301203E
:1016D000EB73D6E7F8B50546FEF7E2FDFF2817D015
:1016E000FEF7DEFDA0B100240A4FE65D3046FEF7AE
:1016F000E7FD0A2000F044FFFEF7D2FD864207D145
:101700000134062CF1D1012305B128701846F8BD2B
:101710000023F9E7362B00082DE9F0478AB0149F23
:101720008246DDE912480E46154699460FB1002360
:101730003B803846FEF708FE30B30A210720FEF74B
:10174000FFFE0A210120FEF7B9FE4FF48A730197CC
:101750000027ADF808308DF80AA000970AF1150AA5
:101760003B462022042102A88DF80BA0FEF757FF6C
:1017700050B19DF80B3053B106B137700DB901204F
:1017800002E0002301202B700AB0BDE8F08716B1FB
:101790009DF80C30337015B19DF80D302B70B9F1F8
:1017A000000F07D09DF80E209DF80F3003EB0223A9
:1017B000A9F8003064B10DF10F02631E04F10F01AE
:1017C00012F8010F03F8010F8B42F9D10023E373E4
:1017D000B8F1000FD3D09DF821209DF8223003EB03
:1017E0000223A8F80030CAE7F0B589B01D460746C5
:1017F0000E9E03AB79B90DF10B02009201960A46D9
:101800000221FFF72BFC22E003F800C001300F2873
:1018100002D1044606E0002011F900C0C4B2BCF1B8
:10182000000FF1D108A90C44002104F8141C110A7E
:101830008DF81C1012218DF81D2008AA02F8151D24
:10184000CDE90026022101223846FFF707FC30B11E
:101850009DF80C209DF80D3003EB02232B8009B07E
:10186000F0BD1FB50DF10F030192009300220B464E
:101870000321FFF7F3FB05B05DF804FB2DE9F0430E
:1018800080468DB0C5480D4617461E46149CFEF78F
:101890008BFE002800F397800CB1002323802046A4
:1018A000FEF752FD08B9002552E00A210720FEF795
:1018B00047FE01200A21FEF701FE41F622530CA843
:1018C00020F8203D002318F8032022B1C11801336D
:1018D0000D2B8A70F7D100238DF81F30EA5C22B1FE
:1018E000C11801330D2B0A74F8D100231A468DF864
:1018F0002D308DF82E70C15C01330A441F2BD2B2FB
:10190000F9D100278DF82F202022019400973B4623
:101910001146FEF784FE0028C5D09DF812506DB127
:10192000B84606EB8606B04516D1002CBBD0FEF7B4
:10193000B7FC000240F032002080B4E7002CB2D0A7
:10194000FEF7AEFC9DF81230803343EA0020208081
:1019500028460DB0BDE8F083C827FA2000F010FE3D
:10196000FA2000F00DFE013FFA2000F009FEBFB2A0
:10197000FA2000F005FE002FEFD121460DF10F00F7
:10198000FFF74CFE012805460BD19DF80F30042BC4
:1019900000F00A8108D8022B00F0E680032B00F04B
:1019A000F18008F10108BEE7052BD1D0FF2BF8D15B
:1019B000002C3FF478AFFEF773FC000240F04C00BF
:1019C00020803D46C4E77648FEF7EEFD00280ADC9D
:1019D0007448FEF7E9FD002805DB204600F0F0F82A
:1019E000FA2000F0CDFDB8F1000F3BD100220094A9
:1019F0003B461146FF20FFF779FD00283FF453AF27
:101A00004FF0000806EB8609A9F1070906EB8606E8
:101A100046458AD0C827FA2000F0B2FDFA2000F02F
:101A2000AFFD013FFA2000F0ABFDBFB2FA2000F09D
:101A3000A7FD002FEFD1214604A8FFF7EFFD0128F5
:101A400005460CD19DF81030042B00F0AD8000F25B
:101A50008480022B00F08880032B00F0908008F136
:101A60000108D5E7434608F12001A3EB080213F86B
:101A7000019BD2B2B9F1000F07D08B42F5D12022E1
:101A80001B3A5FFA82F91B2201E01A2AF8D80023D8
:101A9000009441461846FFF729FD00283FF403AFA4
:101AA000B9F1000F13D1002DA0D02B4605F1400154
:101AB0005A1B13F8018BD2B2B8F1000F12D0994221
:101AC000F6D140221B3A5FFA82F81B220CE0009408
:101AD00000234A4608F11B011020FFF707FD0028EC
:101AE000E1D1E0E61A2AEDD800940023294601202E
:101AF000FFF7FCFC00283FF4D6AEB8F1000F3FF42E
:101B000075AFB8F11A0F82BFA8F11B024FF01B0886
:101B10005FFA82F900944FF00003424605F11B0181
:101B20004FF0200098BF4FF00009FFF7DFFC0028BE
:101B30003FF4B9AEB9F1000F3FF458AF4A46092A55
:101B400028BF09220094002305F136012120FFF768
:101B5000CDFC00287FF44AAFA5E6052B3FF4F8AE94
:101B6000FF2B3FF425AF7AE7002C3FF49CAEFEF745
:101B700097FB000240F04B0020803D46E8E6C1455F
:101B80003FF76DAF002C3FF48EAEFEF789FB0002ED
:101B900040F04A0020803D46DAE600BF6C2B00088A
:101BA000742B00088C2B0008002C3FF47CAEFEF751
:101BB00077FB000240F04D0020803D46C8E600BFA4
:101BC00030B501468BB005461948FEF715FD0446B1
:101BD00018B1002420460BB030BD05B1288028463E
:101BE000FEF7B2FB0028F4D00A210720FEF7A8FC7C
:101BF0000A210120FEF762FC0023202201950093B8
:101C0000032102A8ADF808208DF80A20FEF707FD91
:101C10000028DFD09DF80A4044B9002DDAD0FEF745
:101C20003FFB000240F04E002880D3E70124D1E7BB
:101C30008C2B00082DE9F04F1C46002391B007467D
:101C400016468DF81F308A4661B924B9002528460A
:101C500011B0BDE8F08FFEF723FB000240F04F000B
:101C60002080F3E70B4601F58072A3EB0A0813F915
:101C7000011B1FFA88F819B19342F6D14FF480780E
:101C800008F1FF33FE2BE0D8B8F11B0F2AD8002C47
:101C900061D121468B48FEF7AFFC05460028D5D11F
:101CA00008AA9046884B03F1100E944618685968AC
:101CB0000833ACE8030073456246F6D100231AF9F5
:101CC000031018F90320914240F0A0800133102B3B
:101CD000F5D1002318F80320FA540133102BF9D161
:101CE0000125B4E721467948FEF786FC0028CED1CD
:101CF00004B120804FF0000BA8EB0B09B9F1170FCE
:101D0000CCBF4FF018095FFA89F9CDE90364CDE93A
:101D100001B8CDF800900AEB0B0336220DF11F013C
:101D200008A8FFF7FDFA0546002856D1002C8DD0F3
:101D3000FEF7B6FA9DF82030000280B2FC2B20801E
:101D40003FD02FD89C2B44D001D3FA2B3DD240F06A
:101D50003D0020807BE7002323809AE712F8202CA7
:101D60001344DBB27BE008EB0300C078F854002892
:101D700000F0A38001330F2B40F09B8019469CE0BC
:101D8000002C3FF463AFFEF78BFA9DF8223000027F
:101D900080B2FA3B2080052BD9D8DFE803F0161675
:101DA000120E0A06FE2B04D007D940F03A0020801C
:101DB0004DE740F03B00208049E740F03C002080A8
:101DC00045E740F05E00208041E740F05F00208062
:101DD0003DE740F04F00208039E7CB441FFA8BFBF2
:101DE000C34589D300239DF81F009AB2904202D8C0
:101DF0000023BB5474E708A919444978F954002911
:101E0000F6D001330F2BF0D11A46F1E72046FEF74A
:101E10009BFA00283FF41AAF0A210720FEF790FB37
:101E20000A210120FEF74AFB25238DF820300023EC
:101E30008DF822601AF9031008EB03009AB2C17002
:101E400019B101331B2BF5D11A46D11C10AB581810
:101E5000002300F8203C184602328DF8212082B27F
:101E600091420DF1400C00F101006244BFF676AFE3
:101E70001E2E28BF1E2602F8203CC6EB461306EB9A
:101E800083069DF82110F6000331B6B20194009646
:101E900000232022C9B24046FEF7C1FB00283FF4D0
:101EA000D5AE9DF82230002B7FF46AAF9DF821203B
:101EB000023A934299B2FFF656AF002301257B54B4
:101EC000C5E600BF4C2B00085C2B0008942B0008D3
:101ED00070B505468AB00E4614460AB10023138039
:101EE0002046FEF731FA10B900200AB070BD0A2171
:101EF0000720FEF725FB0A210120FEF7DFFA132356
:101F000001940024ADF808308DF80A30009423467F
:101F10002022032102A8FEF782FB0028E4D09DF8CE
:101F20000920002AE0D09DF80A30023A3370234697
:101F30009A4299B203DC002301206B54D5E702A832
:101F40001844C078E8540028F5D001331B2BEFD19A
:101F50001946F0E72DE9F04F8A46002189B0059037
:101F6000464891469846BDF84CB0149CADF81C10FC
:101F7000FEF742FB88BB424D6B7C012B0AD1224607
:101F800005F112014046FFF76CFC08B90223AB745F
:101F900000236B74EB7C012B01D0129BEBB14FF44F
:101FA000806608AB23F8026D5A46009412994046A9
:101FB000FFF71AFC08B9ADF81E60BDF81E30802B83
:101FC0009CBF4FF48063ADF81E300023BDF81E2087
:101FD000EB74AB7C53435B10AB8200252E46564519
:101FE00040D2A94502D2002C40D12DE0244AAAEBD0
:101FF0000603978A05989F4228BF9FB207ABCDE999
:1020000001B3129B42460093003318BF01233044B2
:102010003946FEF767FDBDF81C200644D3B204B173
:10202000228087421AD0DBB1122B04D1FA2000F0B3
:10203000A7FA0135D3E71D2BF8D0A3F11302022A2A
:1020400006D801220E4BDA74304609B0BDE8F08F95
:10205000182BF6D0632000F093FAEAE70025E8E7B2
:102060001D46E6E7002CEFD0A945EDD2238823F0EA
:10207000FF0343F01E032380E6E700BF742B000834
:102080001800002070B505468AB00E4614460AB105
:10209000002313802046FEF757F978B30A21072062
:1020A000FEF74EFA0A210120FEF708FA40F2152346
:1020B000ADF8083000238DF80B6017368DF80A5004
:1020C0000194354400932022052102A88DF80C507C
:1020D000FEF7A5FA90B11424FA2000F051FAFA2084
:1020E00000F04EFA013CFA2000F04AFAA4B2FA20BD
:1020F00000F046FA002CEFD19DF80A000AB070BD3E
:1021000070B504468AB00E4615460AB10023138006
:102110002846FEF719F910B900200AB070BD0A214F
:102120000720FEF70DFA0A210120FEF7C7F940F259
:102130001B338DF80A40ADF808301E34330A1C44B6
:10214000F6B234448DF80D4000248DF80B30019523
:10215000009423462022062102A88DF80C60FEF789
:102160005EFA0028D8D09DF80A304BB1002DD3D0AC
:10217000FEF796F8000240F03F0028802046CCE7AA
:102180000120CAE72DE9F04F9946002393B01E9C29
:1021900006468A4693469DF870809DF87470ADF8A7
:1021A000163004B1238021467C48FEF725FA60B141
:1021B000022E0AD9FEF774F80025000240F07700DD
:1021C0002080284613B0BDE8F08F21467448FEF702
:1021D00013FA88B90DF116014046FFF79FF905463D
:1021E00050B9BDF81620D3B2553B012B04D80CB919
:1021F0000025E6E72280E4E76A48FEF7D5F90028E3
:1022000006AD61DA00231BF903109AB2E95419B143
:1022100001330F2BF7D11A4612AB1A44002302F8F0
:10222000303C2046FEF790F80028E1D00A21072034
:10223000FEF786F901200A21FEF740F941F2186302
:102240000022ADF828304FEA1A238DF82A608DF865
:102250002B308DF82CA00AA8A95693B200293CD1A6
:10226000002105339BB29AB2142A3DD900224FEACD
:1022700019238DF83D3013468DF83E908DF83F8040
:10228000815C01320B44182ADBB2F9D14FF000090E
:102290008DF840300194CDF80090052320221921BB
:1022A000FEF7BDF90028A3D09DF82A50FDB1002CFF
:1022B0009ED0FDF7F5FF9DF82A304D46C3F180030F
:1022C00043EA002020807CE723463A4659462846C8
:1022D000FFF7B0FC0028A4D18AE783180132102A46
:1022E0005971B9D11346BBE7C1540133BBE716F0AE
:1022F000FD0F51D006F00F06012E7FF479AFA946ED
:10230000AA4607EB87074F453CD0C8268DF815A095
:10231000FA2000F035F9FA2000F032F9FA2000F046
:102320002FF9FA2000F02CF9013EF1D1CDE901643A
:10233000009633460DF1150231464046FFF7ECF9A1
:10234000E8B19DF81530062B19D8DFE803F0041822
:10235000252525250E00002C3FF433AFFDF7A0FF07
:10236000000240F0330020802BE7002C3FF429AF1F
:10237000FDF796FF000240F03900208021E709F1C7
:102380000109C0E7002C3FF433AFFDF789FF0002DD
:1023900040F03400208014E7012512E79C2B000850
:1023A0008C2B00084C2B0008FEE77047F0B5CA786C
:1023B000002502F00F03D20601D58A7813430A786C
:1023C0004FF00F0E12F0FF0F4FF001021CD0046807
:1023D0000F8802FA05F63740B74211D14FEA850C53
:1023E0000EFA0CF724EA070703FA0CF43C43CF7803
:1023F000282F02D0482F02D002E0466100E006619B
:102400006D1C082DE4D304600C88FF2C1ED9446891
:102410005FF0000606F1080702FA07F50F882F4063
:10242000AF420FD14FEA860C0EFA0CF7BC4303FA09
:102430000CF73C43CF78282F00D14561CF78482F47
:1024400000D10561761C082EE4D34460F0BDFEE7A0
:10245000F8B50121042000F047FA104D10242C603B
:102460000E4FADF800408DF803400326103F8DF865
:10247000026069463846FFF799FF0121042000F009
:1024800033FA02202860ADF800008DF803408DF883
:10249000026069463846FFF789FFF8BD1008014021
:1024A00010B5FFF7D5FFBDE8104000F001B80000FF
:1024B00030B587B00121042000F016FAE020ADF815
:1024C000140018248DF8174003208DF8160005A974
:1024D0001848FFF76BFF01210D03284600F004FAAE
:1024E0000121284600F00CFA0021284600F008FAE5
:1024F0000020ADF80000ADF80800ADF80C404FF436
:102500008271ADF80400ADF80210ADF80600ADF828
:102510000E00E9100720084CADF80A10ADF81000C5
:102520006946204600F002FA0121204600F0F4F945
:1025300007B030BD000801400030014001460548A9
:10254000028822F03802028002880A4302800121B8
:1025500000F0E2B900300140102108B1024801E06A
:102560000148001D0160704710080140022108B1B8
:10257000024801E00148001D016070471008014059
:1025800000F09CBA10B50020FFF7E6FF012000F034
:102590008DF80020FFF7EAFF052000F087F8012002
:1025A000FFF7E4FF4FF4967000F080F80120FFF78A
:1025B000D3FFBDE8104040F2ED1000F077B8000006
:1025C00010B594B00020FF218DF808008DF8401060
:1025D0000390049005900690ADF81C00FFF7D2FF21
:1025E0000820FFF7ABFF284C012000F05FF807AA96
:1025F00021462648FEF712FF88B112A8FFF76AF8B5
:1026000070B123480090FEF71DF9009901908842AF
:1026100007D208460199401A052802D9FEE7FEE7CD
:10262000FEE707AA00210220FFF72CFD002829D091
:1026300007A902A8FEF7CBFF002823D09DF80800C9
:10264000012801D003281CD107A8009014230022E0
:1026500010A113A0FFF712F9002813D00A2103A834
:1026600000F036F800280DD007A910A8FEF7D6FF15
:10267000002807D007AA11A908A8FFF729FC0028FD
:1026800000D0012014B010BD80A81201003001401C
:10269000A086010031323334353637383930000006
:1026A000416E796C696E6B696E21000070B50646EB
:1026B000002509E00024FA20FFF762FF641CA4B2A1
:1026C000042CF8D36D1CADB2B542F3D370BD00003D
:1026D000F8B5074600200D46ADF8000004464FF45B
:1026E0007A760FE069463846FEF7BFFF012804D12D
:1026F00008A13846FEF774F930B93046FFF7D6FF27
:10270000641CA4B2AC42EDD3AC4201D30020F8BDAE
:102710000120F8BD302E302E302E30000025CEB0F6
:102720002846ADF828512C464AAA0421FEF7EAFEB5
:1027300000287DD00DF5947A14210094CDE9011A7A
:1027400040F2D2435FA241F2E1010220FFF71AFDFD
:1027500000286ED04AAA78212046FFF7D1FC002835
:1027600068D0AB4600954995502135A84C95FEF7A9
:102770000FF90024204635A921F81000401C80B232
:102780002828F9D300208E46642203AE4FF47A79CC
:102790000A213EF8103004EB8407B3FBF9FC0CF17E
:1027A000300C06F817C0B3FBF2FCBCFBF1F801FBE0
:1027B00018CC06EB47070CF1300C87F801C0B3FBCF
:1027C000F2FC02FB1C3CBCFBF1FC0CF1300C87F86A
:1027D00002C0B3FBF1FC01FB1C3330337546FB70C8
:1027E00005EB40034FF0200C87F804C05B88801C89
:1027F000B3FBF9F530357D71B3FBF2F5B5FBF1F8BC
:1028000001FB18553035BD71B3FBF2F502FB1535F0
:10281000B5FBF1F53035FD71B3FBF1F501FB153377
:1028200030333B7280B2641C87F809C0282802E06C
:1028300023E023E023E0ACD300254FF480175C466F
:1028400041F288364998B84206D94C98401C4C90C1
:102850004998A0F5801049900094CDE9014A2B4693
:102860003246C82103A8FFF775FB009000994998EC
:10287000C8290844499003D007E0FEE7FEE7FEE7D9
:10288000BDF8280110F0FF0FDCD0BDF82801C0B260
:102890001E280CD014280CD015280AD018280CD0CB
:1028A00004208DF800006520FFF76AFECAE70120CA
:1028B00000E002208DF80000C4E703208DF800003E
:1028C0006320F1E7312E312E312E3100FEE77047C3
:1028D0000249084302490860704700000000FA05F9
:1028E0000CED00E070470000044A0029916901D016
:1028F000014300E0814391617047000000100240F5
:10290000044A0029D16801D0014300E08143D1602D
:1029100070470000001002400029018802D041F0F9
:10292000400101E021F040010180704730B502888C
:102930004C8802F441530A88CD8822438C882C436A
:1029400022430C8922434C8922438C892243CC891F
:1029500022431A430280828B22F400628283098A16
:10296000018230BD704700000CB50021264801915E
:102970000091026842F4803202604FF4A063026862
:1029800002F400320092019A521C0192009A12B98C
:10299000019A9A42F3D10268920333D50121009142
:1029A0001A490A6842F010020A600A6822F003021B
:1029B0000A600A6842F002020A60416841604168A8
:1029C0004160416841F480614160416821F47C11BB
:1029D0004160416841F4E8114160016841F0807153
:1029E000016001688901FCD5416821F00301416063
:1029F000416841F0020141604168C1F3810102294F
:102A0000FAD10CBD00910CBD001002400020024024
:102A10004FF0E0210428086903D020F00400086189
:102A2000704740F00400FAE7704700000F4810B507
:102A3000016841F00101016041680D4A11404160A7
:102A400001680C4A11400160016821F48021016095
:102A5000416821F4FE0141604FF41F018160FFF7DE
:102A600083FF05494FF00060086010BD0010024070
:102A70000000FFF8FFFFF6FE08ED00E0FEE70000B3
:102A800010B56FF00400FFF7C3FF0948094900685B
:102A9000B0FBF1F0C1B2084801EB41020170C2EB9A
:102AA000C1114FF6FF7202EAC101418010BD000062
:102AB0000400002000127A00000000200B49097871
:102AC00048434FF0E021486100228A61086940F0E4
:102AD000010008610869C30701D0C003FAD508697D
:102AE00020F0010008618A617047000000000020AA
:102AF0004FF4A060FFF7ECFEFFF7C2FFFFF7D0FC3A
:102B0000FFF75EFD10B1FFF709FEFEE7FEE710B527
:102B1000FDF7E2FF4FF00001016010BD53544D334B
:102B200032463100000000000000000056312E3116
:102B30002E382D51000041494B5BDB41312E322EA6
:102B4000302D3100312E312E382D3100312E312EE5
:102B5000362D3300312E312E362D34003235352EC0
:102B60003235352E3235352E32353500312E312E77
:102B7000362D3700312E312E382D3800312E312EA2
:102B8000362D4500312E312E362D4600312E312E78
:102B9000362D4E00312E312E382D5200312E312E51
:102BA000382D5800C42B0008000000203000000021
:102BB0006C010008F42B000830000020682200009F
:102BC000880100080000000000A24A040000000084
:102BD000000000000102030406070809312E312E0F
:102BE000312D310000000000000000000001020152
:042BF00000040000DD
:0400000508000131BD
:00000001FF
